:020000040800F2
:100000000000032095050008991D00089B1D0008AD
:100010009D1D00089F1D0008A11D00080000000094
:1000200000000000000000000000000081660008E1
:10003000A31D000800000000116700089F5F000872
:10004000E5050008E5050008E5050008E5050008E8
:10005000E5050008E5050008E5050008E5050008D8
:10006000E5050008E5050008E5050008E5050008C8
:10007000E5050008E5050008E5050008E5050008B8
:10008000E5050008E5050008E5050008E5050008A8
:10009000E5050008E5050008E5050008E505000898
:1000A000E5050008E5050008E5050008E505000888
:1000B000E5050008E5050008E5050008E505000878
:1000C000E5050008E5050008E5050008E505000868
:1000D000E5050008E5050008E5050008E505000858
:1000E000E5050008E5050008E5050008E505000848
:1000F000E5050008E5050008E5050008E505000838
:10010000E5050008E5050008E5050008E505000827
:10011000E5050008E5050008A51D0008E50500083F
:10012000E5050008E5050008E5050008E505000807
:10013000E5050008E5050008E5050008E5050008F7
:10014000E5050008E5050008E5050008E5050008E7
:10015000E5050008E5050008E5050008E5050008D7
:10016000E5050008E5050008E5050008E5050008C7
:10017000E5050008E5050008E505000800000000A9
:10018000E5050008E5050008E5050008E5050008A7
:10019000E5050008E5050008E5050008E505000897
:0C01A000B11D0008E5050008BD1D0008A9
:1001B00010B5054C237833B9044B13B10448AFF3A1
:1001C00000800123237010BD6401002000000000A6
:1001D00040E3010808B5034B1BB103490348AFF3E3
:1001E000008008BD000000006801002040E3010815
:1001F00001F0FF01102A2BDB10F0070F08D010F8D8
:10020000013B013A8B422DD010F0070F42B3F6D1DB
:10021000F0B441EA012141EA014122F007047FF0F4
:1002200000070023F0E80256083C85EA010586EA4B
:10023000010685FA47F5A3FA87F586FA47F6A5FA87
:1002400087F68EB9EED1F0BC01F0FF0102F0070293
:1002500032B110F8013B013A83EA010313B1F8D13E
:100260000020704701387047002D06BF354603381F
:10027000073815F0010F07D1013015F4807F02BF58
:10028000013015F4C03F0130F0BC0138704700BFA9
:1002900053B94AB9002908BF00281CBF4FF0FF31ED
:1002A0004FF0FF3000F074B9ADF1080C6DE904CEE9
:1002B00000F006F8DDF804E0DDE9022304B0704741
:1002C0002DE9F047089D04468E46002B4DD18A4209
:1002D000944669D9B2FA82F252B101FA02F3C2F13C
:1002E000200120FA01F10CFA02FC41EA030E9440CD
:1002F0004FEA1C48210CBEFBF8F61FFA8CF708FBEE
:1003000016E341EA034306FB07F199420AD91CEBC5
:10031000030306F1FF3080F01F81994240F21C81F7
:10032000023E63445B1AA4B2B3FBF8F008FB10333F
:1003300044EA034400FB07F7A7420AD91CEB040474
:1003400000F1FF3380F00A81A74240F20781644444
:10035000023840EA0640E41B00261DB1D4400023C9
:10036000C5E900433146BDE8F0878B4209D9002D2D
:1003700000F0EF800026C5E9000130463146BDE8B7
:10038000F087B3FA83F6002E4AD18B4202D3824221
:1003900000F2F980841A61EB030301209E46002DD0
:1003A000E0D0C5E9004EDDE702B9FFDEB2FA82F225
:1003B000002A40F09280A1EB0C014FEA1C471FFA83
:1003C0008CFE0126200CB1FBF7F307FB131140EA6A
:1003D00001410EFB03F0884208D91CEB010103F137
:1003E000FF3802D2884200F2CB804346091AA4B2F9
:1003F000B1FBF7F007FB101144EA01440EFB00FECD
:10040000A64508D91CEB040400F1FF3102D2A64531
:1004100000F2BB800846A4EB0E0440EA03409CE7D0
:10042000C6F12007B34022FA07FC4CEA030C20FA7D
:1004300007F401FA06F31C43F9404FEA1C4900FA9D
:1004400006F3B1FBF9F8200C1FFA8CFE09FB18111A
:1004500040EA014108FB0EF0884202FA06F20BD98D
:100460001CEB010108F1FF3A80F08880884240F2DD
:100470008580A8F102086144091AA4B2B1FBF9F021
:1004800009FB101144EA014100FB0EFE8E4508D91C
:100490001CEB010100F1FF346CD28E456AD90238A1
:1004A000614440EA0840A0FB0294A1EB0E01A14286
:1004B000C846A64656D353D05DB1B3EB080261EBF4
:1004C0000E0101FA07F722FA06F3F1401F43C5E9CE
:1004D000007100263146BDE8F087C2F12003D84004
:1004E0000CFA02FC21FA03F3914001434FEA1C4746
:1004F0001FFA8CFEB3FBF7F007FB10360B0C43EA38
:10050000064300FB0EF69E4204FA02F408D91CEBE7
:10051000030300F1FF382FD29E422DD902386344E5
:100520009B1B89B2B3FBF7F607FB163341EA034185
:1005300006FB0EF38B4208D91CEB010106F1FF38D4
:1005400016D28B4214D9023E6144C91A46EA0046CB
:1005500038E72E46284605E70646E3E61846F8E65D
:100560004B45A9D2B9EB020864EB0C0E0138A3E7A6
:100570004646EAE7204694E74046D1E7D0467BE787
:10058000023B614432E7304609E76444023842E7FF
:10059000704700BFDFF834D0002103E00C4B5B58FC
:1005A000435004310B480C4B42189A42F6D30B4A85
:1005B00002E0002342F8043B094B9A42F9D303F0CE
:1005C0003FF91CF057FE00F07FFE7047000003204B
:1005D000B04E0208000000206401002064010020E9
:1005E000D42C0120FEE700F081BC00F0EFBC704786
:1005F00010B5042104461CF0C4FD204610BD0000C7
:1006000038B50C4B0C4C18800C4B82201980636859
:10061000984740F6110398420AD1094D23682C608F
:10062000822098472B688220DB689847002038BDDD
:100630000120FCE7800100204C0000208201002006
:10064000840100204FF4A071F020FFF7D9BF000013
:10065000F7B5344D2B6804461B698220984780B259
:10066000208000284CD02B680DF106025B6901A99F
:1006700082209847BDF8063040F67462934241D913
:10068000ADF80620BDF80620C2F56762043292B2CA
:100690000A2A3DD90B23B2FBF3F2234B1B889A4263
:1006A00001D9013B9AB2BDF8043040F6B8318B4213
:1006B00030D8C3F571630E339BB20F21B3FBF1F356
:1006C0001A4909888B4201D94B1E9BB2184E194D0D
:1006D00030682F68834281B28CBF591AC91AB8B2E8
:1006E000BA428CBF101A801A89B280B2014405291F
:1006F000C8BF33603368C8BF2A6063802B68A3809B
:1007000003B0F0BDB32B9CBFB423ADF80630B9E7FE
:100710000022C8E7C3F56D6308339BB20E2BCCD81B
:100720000023D3E784010020820100208001002003
:10073000880100208C01002037B568460D4614461C
:10074000FFF786FFBDF8000030B1BDF802302B6026
:10075000BDF804302360012003B030BD01280ED065
:10076000032814D0D0B90E4B1A6800F18040B2FAB9
:1007700082F25209042100F5043003F0F3BA084B69
:100780005A68B2FA82F2520908210648F5E7044B8A
:10079000DA68B2FA82F252092021F6E7704700BF08
:1007A000900100200010024001280ED0032814D030
:1007B000D0B90E4B1A6800F18040003A18BF0122F0
:1007C000042100F5043003F0CDBA084B5A68003A12
:1007D00018BF012208210648F5E7044BDA68003A01
:1007E00018BF01222021F6E7704700BF90010020CA
:1007F00000100240012809D003280AD058B900F19E
:100800008040042100F5043003F0B1BA0821024809
:10081000FAE72021FBE7704700100240012380F82F
:10082000741080F87530704700207047034B4164A6
:10083000003918BF01211970704700BF2F2A01200D
:1008400000207047836B0BB10846184770474FF67E
:10085000FF707047406803689B691847704770478E
:100860007047000070B5044600F050FC2368D3F8D0
:100870008850044BD4E90F122046AC46BDE87040C6
:10088000604700BF000000D008B503680446D3F8F5
:1008900080309847236820469B6F984700F0ECF81B
:1008A000236820461B6F9847292000F085FF00F041
:1008B000E3F8236820461B6F9847F8E710B5044615
:1008C0000AF082FB23682046D3F8AC30BDE8104024
:1008D000184700F00DBC00F011BC00F03DBC00F06A
:1008E000E3BB00F03DBC00F045BC00F0E7BB09F005
:1008F000F6BC10B57C2104461CF043FC204610BD1C
:1009000090F877301BB1406803681B681847184699
:100910007047000010B590F8341090F874400C4BFC
:100920008C421A7809D03AB90A4A0B4914880888C7
:1009300010800C8001221A7010BD002AFCD0054ADC
:1009400005491488088810800C800022F3E700BF56
:10095000282A0120242A0120262A012070B50D46CC
:10096000194635B9094B0A4A0A4840F2BB211CF026
:1009700037FCC0E90F52084B003A18BF01221A7029
:100980000368BDE87040D3F88C301847B0E3010825
:10099000E8E3010836E401082E2A012008B5094BD6
:1009A0001B888B4203D8084B1B88934205D9074B01
:1009B000074A08489E211CF013FC074B1980074B7F
:1009C0001A8008BD242A0120262A01207BE4010880
:1009D000DEE4010836E401082A2A01202C2A01203D
:1009E000012108B50022084605F067FB0A4B186094
:1009F00028B90A4B0A4A28210A481CF0F1FB0022B8
:100A00000421012005F0F6FB074B186018B9074BCD
:100A1000034A2C21F0E708BDA4010020FCE50108F1
:100A200045E6010874E60108A0010020BAE60108C5
:100A3000024B4FF0FF31186805F089BBA40100207C
:100A4000014B186805F0AEBBA4010020024B002149
:100A5000186805F07CBB00BFA4010020FFF7F0BFC1
:100A600003480449006800231A4605F0FEBB00BF96
:100A7000A00100200400002013B5084C00231A46F2
:100A800001A9206805F021FC20684FF0FF33002207
:100A900001A905F01AFC02B010BD00BFA0010020A2
:100AA00003685B6C18470120704703689B6A18470E
:100AB00082B0002301930D4B1A6B42F400021A63BB
:100AC0001A6B02F400020192019A1A6942F40002C0
:100AD0001A611A6922F400021A61054B054A1A616B
:100AE000054B4FF080629A6002B0704700380240B8
:100AF000C01900203D0B000800E100E040F2EF309B
:100B000070470000054B0360054B4FF08062C3F84F
:100B10008820BFF34F8FBFF36F8F704750E80108F5
:100B200000E100E010B504464FF45A61FFF7EAFF18
:100B300020461CF026FB204610BD0000024B1B681F
:100B4000586803685B691847302A012070B504466D
:100B500025460A4B0C30002660602672667245F806
:100B6000203B602229460AF097FB04F55A63EE60A9
:100B70002435AB42FBD1204670BD00BF50E80108D0
:100B800008B50B290BD8DFE801F01206100A0A0A93
:100B90000A0808080808012008BD0520FCE7054BE5
:100BA000054A064866211CF01BFB0020F4E70220E2
:100BB000F2E700BFFCE6010817E7010861E701085A
:100BC00008B50A2909D8DFE801F010060E08080860
:100BD000080606060600012008BD054B054A064822
:100BE00087211CF0FDFA0020F6E70220F4E700BFA1
:100BF000FCE60108A5E7010861E701082DE9F843D3
:100C00004F7F0C4639468146FFF7BAFF94F81E80A5
:100C1000054641464846FFF7B3FF4146064648466B
:100C2000FFF7CEFFA18A628B424B521A1A649A6177
:100C3000228B521A1A61E28A586342EA01425A64CC
:100C400020696268D863DA60216894F81CC0802942
:100C50004FEA0C6226D010D8202945EA020461D060
:100C600040295FD004295DD0324B2A4342F4003240
:100C70004745DA615AD0304A40E0B1F5807F07D06D
:100C8000B1F5007FF0D142F4003242F0090203E0F6
:100C900042F4003242F00A02DA61E2681A625E62ED
:100CA00058612AE0A4682A4342F40032211DD96227
:100CB000DA6122785E62586142B1012A21D01F4B6D
:100CC0001F4A204840F211111CF08AFADA69618843
:100CD00022F47F42013922F0100242EA0122DA6155
:100CE0000120144BDA6942F02002DA61DA699206D7
:100CF000FCD410229A600028BDD0134A1A60BDE8C7
:100D0000F8836288D969541E21F47F4222F01002D0
:100D100042EA0422BCF1FF0042F0100218BF012099
:100D2000DA61DEE744F40034DC61B8E740F2012226
:100D3000E4E700BF00B0024001020100F0E7010853
:100D40000AE8010861E701080102020070B50C46DB
:100D5000897FFFF735FFA68AE18A628B154B2569EB
:100D6000586341EA0641921B5964DD631A642668A0
:100D7000E168082E0DD19A611A615862207F0E4AEF
:100D800042EA0062DA610D4A19625D61DD601A6053
:100D900070BD0022D8611A6148090A0A02F478423B
:100DA00000F4FC600243C1F3C4010A439A63044A9D
:100DB000EDE700BF00B0024009000100010202009F
:100DC00001020300012070470C2070470C2303FB35
:100DD0000100083070470C2303FB01000830704706
:100DE000012070474FF4F46070474FF4F46303FB45
:100DF0000100083070474FF4F46303FB0100083032
:100E00007047012070471020704700EB0110083038
:100E1000704700EB011008307047084601F0BEB97A
:100E200010B5034B0360044607F030FA204610BDAE
:100E300008E9010810B50446FFF7F2FF2046142127
:100E40001CF09FF9204610BD10B5034B036004460B
:100E500007F01CFA204610BDD4E8010810B504467E
:100E6000FFF7F2FF20464FF4F5611CF08AF92046A7
:100E700010BD000010B5034B0360044607F006FAEE
:100E8000204610BDA0E8010810B50446FFF7F2FFA8
:100E9000204618211CF075F9204610BD10B5084BEE
:100EA0000360044600F2D470FFF7BAFF04F12C008F
:100EB000FFF7CAFF04F11400FFF7DCFF204610BD66
:100EC0003CE9010808B50248FFF7E8FF08BD00BF8C
:100ED000AC01002010B50446FFF7E0FF204640F6C5
:100EE00044111CF04EF9204610BD00002DE9F341DD
:100EF00000F0DEFF054600F0DFFF00240146234638
:100F000028462246009410F013F8254B254A264D1A
:100F10001A60204602F0BEF824480FF055FF2B78E7
:100F2000BFF35B8FDB0735D428461CF02CF988B360
:100F30001F4C204B236004F2EC7604F1140004F102
:100F40002C0804F2D4776060C4F80880E76026615A
:100F500007F09EF9184B6361404607F099F9174B6B
:100F6000E362384607F094F9154BC4F8D43704F51A
:100F7000FD6002F08FF9224604F5FD61304602F073
:100F8000FFF8304601F00AF90E481CF047F92846F0
:100F90001CF005F90C4802B0BDE8F041FFF762BC57
:100FA0008C2A012010190020A80100200800002030
:100FB000AC0100203CE90108A0E80108D4E80108E0
:100FC00008E90108C50E0008941800200148FFF741
:100FD0005BBC00BF9418002070B5234C234E244BFB
:100FE000244D23603046FFF7B1FD284613F04CF93D
:100FF000214B2248DC60224C03600022F0204FF499
:1010000080712080C3E912121E4C1F492080C3E961
:1010100019121E4C1A864FF080714FF4A070596758
:101020000121C3E90422C3E90622C3E90822C3E976
:101030000A22C3E90E22C3E91022C3E91422C3E93C
:1010400016221A6683F86C201A67C3E9016583F8D3
:10105000781020800E4C83F8341020800D480270E8
:101060000D4A1A6070BD00BFF00A0020F40A00208B
:10107000A0E301081419002094180020302A012050
:10108000242A01202A2A012001000001262A012009
:101090002C2A0120282A01202CE501080148FFF70D
:1010A00031BD00BFF40A0020034B902283F85A237D
:1010B00083F85823704700BF00E100E0094A0A495D
:1010C000D3680A48C3F30A03013B9BB20B80116942
:1010D000C1F30A01013901801364536B43F001032A
:1010E0005363704700680140901900208E1900205A
:1010F000014BD3F8AC00704700680140024B01225D
:10110000C3F8AC105A6270470068014070B50446DD
:1011100009F03BF923685D6E0CF08CFD014620461A
:10112000A8472368054AD3F888502046AC460023D8
:10113000BDE87040A2F51631604700BF00B004D092
:1011400009F00AB990F84B3013B1024B01221A7022
:1011500009F00EB98C19002009F0C7B809F021BABE
:10116000034B4FF080629A604FF080729A60704734
:1011700000E100E0084B4FF08062C3F88820BFF325
:101180004F8FBFF36F8F4FF08072C3F88820BFF38B
:101190004F8FBFF36F8F704700E100E010B5144C24
:1011A000236823B3134B144A1B6C11888B4213D151
:1011B000124B198803F0BCFB226892F866300133A9
:1011C00082F86630FFF74CFC206809F0FDFEBDE8B0
:1011D00010400020FFF7C2BA03F0AAFB20680368A2
:1011E0001B6A9847BDE810400020FFF7DDBA10BD2C
:1011F000302A012000680140901900208E1900203B
:1012000007B5064BADF806001B68054801220DF135
:10121000060104F067FA03B05DF804FB100000203B
:10122000501B002008B5642004F03BFFFBE70000E2
:1012300070B5002494B02146142203A8CDE90B44D4
:101240000D941CF059F81E4B01941A6C42F0805218
:101250001A641B6C03F080530193019B194B029499
:101260001A6842F440421A601B6803F44043029338
:10127000029B05264FF48033CDE908630123022544
:101280000A934FF480030822CDE90E534FF4A8735C
:10129000CDE9102308A804231393129503F066FBED
:1012A0000F23CDE903354FF4A0514FF48053CDE91E
:1012B000061303A83146059403F036FD14B070BD43
:1012C00000380240007000402DE980484FF01409BA
:1012D0009BB002F0C3FAFFF7ABFF4A4600210DA80E
:1012E00000241CF009F8C64B00941A6BC548C64D83
:1012F00042F010021A631A6B02F010020092009A78
:1013000001941A6B42F004021A631A6B02F0040291
:101310000192019A02941A6B42F020021A631A6B2E
:1013200002F020020292029A03941A6B42F08002A9
:101330001A631A6B02F080020392039A04941A6BE8
:1013400042F001021A631A6B02F001020492049A3D
:1013500005941A6B42F002021A631A6B02F0020241
:101360000592059A06941A6B42F040021A631A6BB2
:1013700002F040020692069A07941A6B42F00802A5
:101380001A631B6B03F00803079322463C21079B5B
:1013900002F0E8FC9D482246042102F0E3FC9C4850
:1013A00022464FF4405102F0DDFC224699484FF4AA
:1013B000005102F0D7FC01264FF003083C2391486E
:1013C000CDF840800DA902274FF0040ACDE90D3673
:1013D0000F9402F0E1FB8D480F940DA9CDE90DA605
:1013E000109702F0D9FB4FF4405389480DA9CDE97D
:1013F0000D364FF4005BCDE90F4702F0CDFB0DA990
:101400008448CDE90DB6CDE90F4402F0C5FB824812
:10141000824B036002F0B4FA814A824B2C62C5E928
:10142000002328464FF48043C5E90434C5E902444B
:10143000C5E9064402F080FE1021284603F0BCF8FE
:101440002146284603F0D7F87748784984624FF45C
:101450008273C0E900134FF400751823C0E90653E6
:101460000A23734DC362C0E90244C0E90444C0E9E1
:10147000084404F0DBF86F4BC5F828B04FF0100CAF
:10148000C5E900364023C5E904C34FF4C073C5E97C
:1014900006344FF40063C5E908340DA90723284634
:1014A000CDE90E3ACDE910384FF0080BC5E9024AF4
:1014B000CDE912770D9703F0B8FF4FF6FF7209A937
:1014C0002846CDE90AB6089409960C9403F0CDFF9E
:1014D000304602F0EFF94FF6FF7209A92846CDE930
:1014E000097BCDE90B6403F0C0FF4FF6FF7209A939
:1014F0002846CDE9098BCDE90BA403F0B6FF4FF4E4
:101500000C730893089B0C934FF6FF7209A92846A9
:10151000CDE909AB0B9603F0A8FF40F26A512846CB
:1015200003F0C1FF342221460DEB02001BF0E4FE64
:10153000414D424BAC86C5E900340923C5E9053667
:101540001D2340F20D1EC5E9073840F24313C5E9DB
:1015500009E340F2171840F247132846C5E90B8308
:10156000C5E902442C6185F836404FF4806A03F0E7
:10157000E7F8F02205214FF4A073CDE90E24CDE960
:1015800014A1CDE916420DA922464FF0FF082846C6
:10159000CDE910372A4D1893CDE912840D94ADF89A
:1015A00064408DF8664003F096F9264B2B601B686B
:1015B00098472B68244DDB689847244BC5E90A47B8
:1015C000C5E90C442846C5E90034C5E9027402F0B7
:1015D000E7F93146284602F09BFA1D4D1D4BAC61E0
:1015E000C5E9003428467F23C5E90238C5E904442B
:1015F00003F0DBFD184942F210030B8032462DE068
:101600000038024000100240001A0020000802408A
:10161000000C024000180240B819002000300240BF
:10162000005C0040A0860100501B002000500140DB
:101630001C1B0020400100A0541A0020006801403B
:101640009819002014000020C019002000B00240AA
:10165000FC1A002000280040A01900203023284652
:101660008B70C1E9034403F0EEFD104906234B7073
:10167000324622232846CB700F7081F8029003F087
:101680003EFEFEF7B0FF04F097FC094A09482146E8
:1016900004F0BEFC084B094A18602146084804F0D3
:1016A000B7FC084B186004F099FCFEE79C19002079
:1016B00084E9010825120008B419002060E9010836
:1016C000EB05000894190020704770477FB5094B5F
:1016D0008DF817201B6802930DF117020123009269
:1016E00001930A460146044802F0CEFD07B05DF8BA
:1016F00004FB00BF0C000020001A00207FB500236F
:101700008DF81730084B1B6802930A4601230DF130
:101710001701009101930146044802F045FE9DF82F
:10172000170007B05DF804FB0C000020001A002031
:101730001FB5084C24680092CDE901340A46012304
:101740000146054802F030FE003818BF012004B001
:1017500010BD00BF0C000020001A002002F0AAB843
:1017600008B506480022042102F0FCFABDE8084052
:1017700002480122042102F0F5BA00BF000802402D
:1017800038B50B4D044601220A484FF4005102F0CF
:10179000E9FA00220421284602F0E4FA2046FFF785
:1017A0002FFD28460122BDE83840042102F0DABAB4
:1017B00000080240000C024038B50B4D04460022E0
:1017C0000A484FF4005102F0CDFA002204212846C5
:1017D00002F0C8FA2046FFF713FD28460122BDE8B3
:1017E0003840042102F0BEBA00080240000C02405A
:1017F000F7B5144E144F05460C463046002204211E
:1018000002F0B0FA00224FF40051384602F0AAFA72
:101810002846FFF7F5FC0D4B0D481B68224601A931
:1018200004F002F9384601224FF40051019C02F005
:1018300099FA30460122042102F094FA204603B0BE
:10184000F0BD00BF00080240000C02401000002064
:10185000501B002002F02EB80268034B9A4201D1BF
:1018600002F016B8704700BF00100040704700003B
:1018700082B00E4B00220092596C41F480415964B1
:10188000596C01F48041009100990192196C41F06A
:10189000805119641B6C03F080530193019B0F214D
:1018A0006FF0010002B002F02BB800BF0038024018
:1018B0000268094B9A4282B00BD100230193074B77
:1018C0001A6B42F480521A631B6B03F4805301932A
:1018D000019B02B0704700BF003002400038024058
:1018E00007B50F4B02689A4216D10022A3F5F043C8
:1018F0000192196B41F4000119631B6B03F400039F
:10190000019305215A20019B01F0FAFF5A2003B0F0
:101910005DF804EB02F026B803B05DF804FB00BFED
:1019200000B002402DE9F043044689B014220021A2
:1019300003A81BF0E1FC2268244B9A4243D1244CBB
:10194000244800250095236B43F004032363236B95
:1019500003F004030093009B0195236B43F0010304
:101960002363236B03F001030193019B4FF01209E2
:101970004FF400734FF001080327042603A9CDE9B3
:101980000339CDE90587079602F006F94FF4807315
:101990001148079603A9CDE90339CDE9058702F07F
:1019A000FBF80295236C43F400032364236C03F4D7
:1019B00000030293029B236A43F400032362236A19
:1019C00023F40003236209B0BDE8F083005C00400B
:1019D000003802400008024000000240F0B599B013
:1019E00004461422002107A81BF086FC30220DEBD0
:1019F000020000211BF080FC22685E4B9A4240F0FE
:101A0000B78008230C93C0231093042312930CA8CF
:101A10004FF40033159303F051FA08B1FFF726FF96
:101A2000554B5648002400945A6C42F080625A6428
:101A30005A6C02F080620092009A01941A6B42F094
:101A400020021A631A6B02F020020192019A02949A
:101A50001A6B42F001021A631A6B02F00102029241
:101A6000029A03941A6B42F002021A631A6B02F094
:101A700002020392039A04941A6B42F040021A6322
:101A80001A6B02F040020492049A05941A6B42F019
:101A900004021A631A6B02F004020592059A069476
:101AA0001A6B42F008021A631B6B03F008030693DB
:101AB00002250E26069B0B964FF4806307A9CDE9FD
:101AC0000735CDE9094502F067F841F658032C487F
:101AD0000B9607A9CDE907350927CDE9094502F09D
:101AE0005BF8032327480B9707A9CDE90735CDE914
:101AF000094502F051F84FF4706322480B9607A98C
:101B0000CDE90735CDE9094502F046F84FF40C63FD
:101B10001D480B9607A9CDE90735CDE9094502F027
:101B20003BF8C02319480B9607A9CDE90735CDE945
:101B3000094502F031F8082315480B9607A9CDE9AD
:101B40000735CDE9094502F027F84FF4A0530E48B8
:101B50000B9707A9CDE90735CDE9094502F01CF837
:101B600058202246052101F0CBFE582001F0FAFE54
:101B700019B0F0BD00680140003802400014024076
:101B80000000024000040240001802400008024029
:101B9000000C024010B504468CB03022002168468B
:101BA0001BF0AAFB22680A4B9A420ED12023009315
:101BB00068464FF480730A9303F080F908B1FFF789
:101BC00055FE044B0122C3F83C2E0CB010BD00BFE3
:101BD000002800400000474210B5044688B0142297
:101BE000002103A81BF088FB2268144B9A4223D1E2
:101BF00003F56843002101915A6C114842F48012A8
:101C00005A645A6C02F480120192019A02911A6B82
:101C100042F020021A631B6B03F020030293029B25
:101C20004FF4607202230321CDE903230523CDE99C
:101C3000061303A901F0B0FF08B010BD0050014029
:101C4000001402402DE9F04186B0002303932B4B92
:101C50001C68002C4FD14FF00108C3F80080284BBE
:101C600000949A6B274842EA08029A639B6B03EA46
:101C700008030093022703260C25009B01A94FF6B9
:101C80003F03CDE90137CDE9046501F085FF1E482A
:101C9000059501A9CDE90187CDE9034601F07CFF57
:101CA00048F233131948059501A9CDE90137CDE96B
:101CB000034601F071FF4FF683731548059501A99E
:101CC000CDE90137CDE9034601F066FF4CF203731D
:101CD0001048059501A9CDE90137CDE9034601F08A
:101CE0005BFF60230C48059501A9CDE90137CDE9DB
:101CF000034601F051FF06B0BDE8F081A81B0020AB
:101D0000003802400014024000080240001802405F
:101D100000100240000C02400004024030B50146B1
:101D200089B00022362001F0EBFD362001F01AFECA
:101D30000025154B02951A6C144C42F010021A64DF
:101D40001B6C03F01003029301A903A8029B03F08C
:101D500097F803F085F80E4B236040F2E733E36019
:101D600040000C4BB0FBF3F0013860602046256169
:101D7000A56004F045F820B9204603F0FBFE09B049
:101D800030BD0120FBE700BF00380240AC1B002043
:101D90000010004040420F007047FEE7FEE7FEE7FC
:101DA000FEE77047014803F023BF00BFAC1B0020D3
:101DB000014802F033BD00BF541A0020014801F071
:101DC0001DBE00BFC01900200120704708B51BF0E0
:101DD00039FA162303604FF0FF3008BD08B51BF039
:101DE00031FA16230360FEE770B50D4614460E4621
:101DF000731B9C4201DC204670BDAFF3008006F8E7
:101E0000010BF5E770B50D4614460E46731B9C4258
:101E100001DC204670BD16F8010BAFF30080F5E73A
:101E20004FF0FF3070474FF400534B600020704775
:101E300001207047002070470A4A116808B5034620
:101E400009B9094911601068694603448B4206D9F3
:101E50001BF0F8F90C2303604FF0FF3008BD13604E
:101E6000FCE700BFF41B0020D82C0120704710B500
:101E7000042104461BF085F9204610BD08B503294E
:101E800013D8DFE801F002060A0E01F04FF90068EE
:101E900008BD01F04BF94068FAE701F047F98068A6
:101EA000F6E701F043F9C068F2E70020F0E7000030
:101EB00000487047BCE901080220704713B50024B0
:101EC00051B1036801948DF8034001AA9C680DF19B
:101ED0000303A04702B010BD0846FBE740897047E6
:101EE000808970478088704783798088184480B2E1
:101EF0007047C07900F07F007047C079C009704713
:101F0000704710B5082104461BF03BF9204610BD70
:101F10007047704700F596730868496803C37047B7
:101F2000704770474160704770470000064BC0F82B
:101F300048310023C0F84C3100F5A073C0F84401CB
:101F4000C0F83C31704700BFED1F00080123037249
:101F500070477047704710B4C26841685410034618
:101F600001EB6200D20748BF0A599B685DF8044B39
:101F700048BFD358184743682BB183682BB9C06852
:101F800000F001007047184670470120704710B5F7
:101F90000C2104461BF0F5F8204610BD10B51021A9
:101FA00004461BF0EEF8204610BD10B54FF4AC719E
:101FB00004461BF0E6F8204610BD08B50BF03AFECB
:101FC000BDE808400CF046BA10B50446D0F83C0114
:101FD00058B10368DB68984738B1D4F83C0103680E
:101FE0009B6898470023C4F83C3110BD2DE9F14FA0
:101FF000D0E9545A0746A86803681B6A9847B0F5A9
:10200000F46F05D2454B464AA32146481BF0E8F839
:10201000686803681B6A98470F2803D8424B404AF8
:10202000A421F2E7E86803681B6A98470B2803D8E5
:102030003E4B3B4AA521E8E7DFF8F8900BF0FAFDAC
:102040000BF046FED9F8000010B10368DB68984732
:10205000D9F8000010B103681B689847DFF8D880F2
:10206000D8F8000010B103685B699847D7F83801C9
:1020700010B103685B689847D8F8000010B1036896
:102080001B689847D7F8380110B103689B689847D8
:10209000E868036800215B6A98474FF0000B244B07
:1020A00003600446C0F804B080F808B0A86803686C
:1020B00059465B6A9847064601F0AAF868680368C3
:1020C00059465B6A98473146054601F07DF8C9F8E4
:1020D0000040C7F83851C8F80060E5B12B1DCAF8B8
:1020E00000303368C5F808A03046DB68F5639847D0
:1020F0002B6828461B689847214630460DF086FA23
:10210000236820461B69984723685B69204601B015
:10211000BDE8F04F18472B46E1E700BFF4E901089E
:1021200082EA010880EB0108C7EB01086AEC0108AC
:102130007CED0108702A01206C2A0120F8B50446C4
:1021400017460E460BF0DEFD104B0025C4E9547611
:102150000F4E1C60C4E952550E4B306823600E4B85
:10216000C4E95035036801219B68C4E94E5598477E
:10217000284600F08FFF336893F876200AB1D86CB8
:1021800000B9986813F0CBFE2046F8BD7C2A0120E8
:10219000302A012030ED010818ED0108064BC0F887
:1021A00048310023C0F84C3100F5A073C0F8440159
:1021B000C0F83C31704700BFED1F0008006A70474F
:1021C000406A704770478B8880690A68DB0A50F85C
:1021D00023001044704710B5C2B1137BB3B1547BD8
:1021E000D27A240204F4E0641443C26998B202EB88
:1021F000840213888B4202D192F9020010BD05D8E7
:10220000013880B204320028F3D1F7E70020F5E767
:1022100010B5282104461AF0B4FF204610BD000076
:1022200030B589B00446BDF850500695BDF84C5005
:1022300005959DF8405004959DF83C5003959DF8F8
:10224000385002959DF8345001959DF83050009516
:102250000CF072FD064B2360119BA361129BE3619E
:10226000159B2362169B6362204609B030BD00BFF8
:10227000A0ED01080020704781807047C180704741
:1022800001817047418170477047704770477047C0
:10229000704710B4C4880368121B84885B6D091BE7
:1022A00012B25DF8044B09B218474FF6FF738381F1
:1022B0004FF0FF3303621368C361106070477047CB
:1022C000704770477047704790F825201AB190F812
:1022D000242002B1186070477047704713B5044658
:1022E000084611461A4604F24C4398420CD1036842
:1022F00001929B6898472368DB6A0146019A204651
:1023000002B0BDE81040184704F20463984207D1B8
:10231000036801929B689847236801461B6BEDE7B1
:1023200002B010BD022070470220704770470000C5
:1023300038B50546064B45F8043BC36F04461B6899
:102340007C309847636828461B689847204638BD0C
:10235000B4EF010838B50546064B45F8043BC36F9A
:1023600004461B687C309847636828461B6898477A
:10237000204638BD9CEF0108F0B4C56846686F1070
:10238000044606EB6500ED07A46844BFF5592C59D7
:10239000A446F0BC604743682BB183682BB9C06882
:1023A00000F001007047184670470120704710B5D3
:1023B0000446FFF7CFFF2046F4211AF0E2FE204644
:1023C00010BD10B50446FFF7B3FF2046F4211AF004
:1023D000D8FE204610BD10B5102104461AF0D1FEDB
:1023E000204610BD10B5044600F56D7006F00CF9DE
:1023F00004F58A6000F02CFFD4F8C83404F5996025
:10240000D3F88830984704F26C5006F0FDF804F5D4
:10241000C16000F062FFD4F8803604F5D060D3F8D4
:102420008830BDE81040184790F8252012B10368A5
:102430005B6918477047000008B58BB2012B05D9BE
:10244000054B064A064854211AF0CAFE782301FBC0
:102450000300043008BD00BFF0ED01080BEE0108D9
:102460009FEE010808B58BB2012B05D9054B064A32
:10247000064854211AF0B4FE782301FB030004300F
:1024800008BD00BFF0ED0108FEEE01089FEE010857
:10249000074A02600022C0E90122C0E90322C0E924
:1024A0000522C0E907224FF480728284704700BF82
:1024B0005018020870B5036804461B6B1546984710
:1024C0002368294620465B6BBDE87040184770B50D
:1024D00004461D46BDF91060FFF7ECFF236829464E
:1024E00020469B6B9847236831462046DB6BBDE84E
:1024F0007040184710B52622044600211AF0FCFE51
:102500002046FFF7C5FF044B2360FF2384F82630E5
:102510000023A362204610BD9C13020810B526229A
:10252000044600211AF0E8FE2046FFF7B1FF0A4BEF
:1025300023600A4BA3624FF6FF73A3854FF47F021B
:102540000023C4E90C324FF0FF32C4E91023238783
:10255000E363204610BD00BFDC120208ECE901086D
:102560002DE9F04F2DED0C8B04468BB00CF0A2FE44
:1025700022460025EF4BE56342F8403B104609EE4A
:10258000102AFFF7B7FF04F16C0318460AEE903AE1
:10259000FFF7B0FF04F1980304F1C40B18460BEEEB
:1025A000103AFFF7A7FF584607F03AFB04F5DC7333
:1025B00018460BEE903AE04EFFF76AFF04F5F2730F
:1025C000C4F8B861C4F8E051184609EE903AFFF734
:1025D000A5FF04F50B7304F5167A18460CEE103AB5
:1025E000FFF756FFC4F82C62C4F854525046FFF768
:1025F00095FF04F5287304F53379184608EE103A70
:10260000FFF746FFC4F8A062C4F8C8524846FFF777
:1026100085FF04F5457318460CEE903AFFF76AFF04
:1026200004F5507304F5627818460AEE103AFFF785
:1026300075FF404606F038FAC04BC4F84C3404F538
:102640008A6004F24C4304F5A8670DEE103A00F0DE
:1026500017FE04F5996000F013FE384606F024FAE0
:10266000B74BC4F8043604F5C16004F204630DEE00
:10267000903A00F03BFE04F5D06000F037FE04F520
:10268000DF63184608EE903A06F01CFEAD4BC4F826
:1026900090374FF4A076AC4BC4F8983719EE100A77
:1026A00000962A462946C4F89447C4F89C57F0235C
:1026B000FFF70DFF4FF07F431AEE900AA3660096D6
:1026C0002A462946F023FFF702FFA04BC4F89430B6
:1026D00030231BEE100A00932946F0230822FFF74F
:1026E000F6FE4FF07F43C4F8C0304FF0140384F877
:1026F000BE302A4629465846FFF7DCFE58463221AE
:1027000007F05BF95846322107F0DAF9904BC4F82C
:10271000C03119EE900A0F221721FFF7CBFE04AE4D
:102720004FF0FF3319EE901AC4F814323046A4F873
:10273000185208F08DFE96E8070004F5087C8CE836
:102740000700844B0893042219EE900A08A9ADF8FB
:10275000242009F0C3F919EE901A1BEE900A06F036
:10276000E3FE1BEE901A584607F082FB784BC4F844
:10277000343250460F220D21FFF79CFE4FF0FF32FE
:10278000C4F8882251463046A4F88C5208F060FE06
:1027900096E8070004F5257C8CE807004FF003015C
:1027A0006C4BADF82410504608A9089309F096F92F
:1027B0001CEE100A514606F0B7FE1CEE101A5846E1
:1027C00007F056FB624BC4F8A83248460F221D2181
:1027D000FFF770FE4FF0FF32C4F8FC224946304646
:1027E000A4F8005308F034FE96E8070004F542739D
:1027F00083E807004FF0020A564B089308A94846A1
:10280000ADF824A009F06AF918EE100A494606F05E
:102810008BFE34231CEE900A00934E228023362137
:10282000FFF755FE4FF07F42C4F83C234FF01402EF
:102830001CEE901A18EE100A84F83A2306F074FE83
:102840001AEE100A56227021FFF734FE4FF0FF32C5
:102850001AEE101AC4F870233046A4F8745308F026
:10286000F7FD96E8070004F55F7383E80700394B2E
:1028700008931AEE100A052308A9ADF8243009F0D0
:102880002DF91AEE101A18EE100A06F04DFE32233A
:102890004E22009340463B233621FFF718FEDFF817
:1028A000B8902946404606F07BFB2946404606F094
:1028B000D3FB4946404606F0B5FA40460A2106F0E9
:1028C000B4FA40460A2106F0B3FA4046192106F050
:1028D00029FA2A462946404606F065F94046012174
:1028E00006F079F904F5F2662A464046352106F0ED
:1028F0003DF932461DEE101A404606F00AF818EE71
:10290000100A41464FF0350806F00EFE3B234D22DB
:102910003846CDF800807B21FFF7D9FD294638469F
:1029200006F03EFB2946384606F096FB49463846F7
:1029300014E000BFE4EF0108700602089CEF0108F4
:10294000B4EF0108CCEF0108DD220008565BF0FF70
:10295000F0004001ECE9010819F6000806F062FAFF
:1029600038460A2106F061FA38460A2106F060FA74
:1029700038463B2106F0D6F92A462946384606F065
:1029800012F93846012106F026F92A464146384612
:1029900006F0ECF832461DEE901A384605F0B9FF05
:1029A00018EE100A394606F0BFFD18EE101A584608
:1029B00007F05EFA5146584607F04BFA162340F2EC
:1029C000231218EE900A009346216423FFF77FFD3F
:1029D00018EE900A4FF0FF3106F072FB01261C4BF7
:1029E000089318EE900A08A9ADF8246006F076FB6B
:1029F00018EE900A314606F0B3FC0A224FF00303AA
:102A0000114618EE900A84F827372B4606F0ABFCE7
:102A1000201D19EE101A039006F086FD1AEE901A8A
:102A2000039806F081FD1BEE101A039806F07CFD5A
:102A30000398594606F078FD039818EE901A06F0B0
:102A400073FD20460BB0BDEC0C8BBDE8F08F00BFD2
:102A5000ECE9010810B5084B0360044600F204607D
:102A6000FFF766FC04F24C40FFF774FC04F1C4006D
:102A700006F0AEFF204610BDE4EF010810B5044695
:102A8000FFF7E8FF20464FF4F4611AF07AFB204686
:102A900010BD806A704730B50368018185B06D460E
:102AA0000146D3F8843004462846984795E8070045
:102AB0003C3484E8070005B030BD30B5036841817F
:102AC00085B06D460146D3F88430044628469847C1
:102AD00095E807003C3484E8070005B030BD0022CB
:102AE000028042808280C280704780F83610704732
:102AF00070B5036804461B6B154698472368294642
:102B000020465B6EBDE87040184700207047806C1F
:102B1000704770477047704710B54C2104461AF053
:102B200030FB204610BD10B5782104461AF029FB71
:102B3000204610BD0368828D70B55E6B114B1B681B
:102B400004468DB22BB9104B104AAE2110481AF032
:102B500047FB10490988914203D80F4B0B4AAF211C
:102B6000F4E713F812200D4B1B6853F8220003689A
:102B7000DB6A9847281A01B233462046BDE8704008
:102B8000184700BF802A012018F001085AF00108F8
:102B900088F00108842A0120CFF00108882A01204A
:102BA00000224FF0FF31C0E9002182607047000031
:102BB000F0B505460023324A8362324945F82C2B92
:102BC0004FF6FF72A0F858202F4AC262C0E90213E4
:102BD00004464FF0FF324FF480712C4F8366C0E9FA
:102BE0001B23C0E90433C0E9063343674360036233
:102BF0008184476587B02648E2656E464FF47F02C0
:102C0000C4E90C03C4E90E33C4E91033C4E9123338
:102C1000A4F850102266A4F8643029463046FFF725
:102C2000BFFF96E8070004F1680383E80700194B2B
:102C30001B682BB9184B194AAE2119481AF0D0FA63
:102C4000184B1B88082B03D8174B144AAF21F4E705
:102C5000164B0821186800F059FA6067284608F0FA
:102C60001DFF092304A92846ADF81430049708F085
:102C700035FF2046294606F057FC204607B0F0BD38
:102C8000A8F101083B00350018F10108ECE9010842
:102C90000B000900802A012018F001085AF00108F1
:102CA00088F00108842A0120CFF001088C2A012035
:102CB0007047704710B5782104461AF062FA204632
:102CC00010BD0000F0B505460023324A8362324948
:102CD00045F82C2B4FF6FF72A0F858202F4AC262FD
:102CE000C0E9021304464FF0FF324FF480712C4FBD
:102CF0008366C0E91B23C0E90433C0E90633436798
:102D0000436003628184476587B02648E2656E466A
:102D10004FF47F02C4E90C03C4E90E33C4E9103355
:102D2000C4E91233A4F850102266A4F8643029468E
:102D30003046FFF735FF96E8070004F1680383E8A3
:102D40000700194B1B682BB9184B194AAE211948BB
:102D50001AF046FA184B1B88062B03D8174B144A57
:102D6000AF21F4E7164B0621186800F0CFF9606731
:102D7000284608F093FE072304A92846ADF814302E
:102D8000049708F0ABFE2046294606F0CDFB20460E
:102D900007B0F0BD3CF201083B00350018F1010816
:102DA000ECE901080B000900802A012018F0010855
:102DB0005AF0010888F00108842A0120CFF00108A8
:102DC0008C2A01207047000030B5164D2C78BFF3D7
:102DD0005B8F14F001048DB020D128461AF0D3F98E
:102DE000E0B1114B114912480894CDE909433F2342
:102DF0000793104B0693104B0394CDE90443012233
:102E00000423CDE9013200940F231022FFF708FAC2
:102E10000A481AF003FA28461AF0C1F904480DB01E
:102E200030BD00BFF81B002000F70108FC4302087A
:102E3000FC1B002084460208CC460208C52D000871
:102E40007047000030B5154D2C78BFF35B8F14F040
:102E500001048DB01FD128461AF095F9D8B1104B56
:102E6000104911480894CDE909433F2307930F4BBC
:102E700006930F4B03940122CDE904430423CDE9CB
:102E8000013200941423FFF7CBF90A481AF0C6F96F
:102E900028461AF084F904480DB030BD241C0020E7
:102EA00000F70108DC440208281C00208C460208B8
:102EB000D0460208412E00087047000030B5164D7C
:102EC0002C78BFF35B8F14F001048DB020D128461D
:102ED0001AF059F9E0B1114B114912480894CDE9A3
:102EE00009433F230793104B0693104B0394CDE9FE
:102EF000044301220423CDE9013200941E23112250
:102F0000FFF78EF90A481AF089F928461AF047F9AE
:102F100004480DB030BD00BF501C002058FB010814
:102F2000EC440208541C002090460208D4460208D3
:102F3000B92E00087047000030B5154D2C78BFF34E
:102F40005B8F14F001048DB01FD128461AF01BF9D5
:102F5000D8B13F2307930F4B06930F4B05930123E3
:102F6000CDE9034302930423CDE900430B490C4808
:102F700008941C230C22CDE90944FFF751F90948B4
:102F80001AF04CF928461AF00AF905480DB030BD80
:102F90007C1C0020B4460208D8460208DC45020822
:102FA000801C0020352F000800207047002070474B
:102FB0000EB403B503AB002153F8042B01930BF0BF
:102FC000EDFC02B05DF804EB03B070470CB407B53C
:102FD00004AB53F8042B01930BF0E0FC03B05DF855
:102FE00004EB02B070470000436C10B5044673B3A5
:102FF000038F2BB9184B194AC02119481AF0F0F861
:10300000C38E00EB43035B8C0BB30DF007F9238FEA
:10301000012B03D8134B144AC521EEE7E28E531C53
:103020009BB2092B194688BFA3F10A0104EB4101A9
:1030300040F63F10498C814209D10A2B04EB420231
:1030400028BF002304EB4303508C5884518420464E
:10305000BDE810400CF0C6BF78FB010881FB0108F9
:103060002CFC010876FC010884FC01080CF072BFFE
:1030700010B586B002AC84E806001A460AAB059388
:103080000193099B00932146089B0AF0F5F806B0CE
:1030900010BD000038B518BB124B13481B6813490C
:1030A000B3B11A689C681A4402605A681A440A60EC
:1030B0001C440F4B00221A8000F038F8054600F03F
:1030C00033F80C4B1C600C4B1D600C4B188007E058
:1030D0000B4B03600B4B0B600B4B1C68002CE8D1B7
:1030E00038BD00BFA81C0020AC1C0020B01C002074
:1030F000B41C0020802A0120882A0120842A012073
:1031000004470208DC46020880470208044B1B689B
:1031100053F82100034B1B6803EB4000704700BFCE
:10312000B01C0020AC1C00200A20704700487047EB
:10313000B81C002010B5FFF7FFFE064C2060FFF71B
:10314000BDFE6060FFF77EFEA060FFF73DFEE06021
:1031500010BD00BFB81C0020704710B54FF4AC7113
:1031600004461AF00EF8204610BD10B50446D0F8FB
:10317000540100F093F82046BDE810400AF0DABB95
:1031800010B50446FEF7DAFF014B2360204610BD60
:1031900060FD01087047043870477047C06810B47C
:1031A0000468646BA4465DF8044B6047A0F104001A
:1031B000FFF7F4BF10B51021044619F0E2FF2046D6
:1031C00010BDA0F10400F5E710B500228260044AAA
:1031D000C16002F1080424320460426010BD00BFE7
:1031E000A4FD010870470B680846D3F88C301146DF
:1031F0001847FFF7F7B807B500F5DF60019006F054
:10320000B2F8019803B05DF804EB0BF0E8BC0000E5
:1032100010B50446FFF7A4F9014B2360204610BD0A
:10322000DCFD010810B5034B03600446FFF712FCF8
:10323000204610BDDCFD010810B50446FFF7F2FF83
:1032400020464FF4F46119F09CFF204610BD7047F2
:10325000FFF760BC13B50B460446044A04216846D8
:103260000DF0A4FDC4F874D002B010BD14FE010826
:1032700010B57821044619F084FF204610BD0000E7
:1032800010B50446FFF794FC014B2360204610BDA7
:1032900020FE0108002202607047000070B50B4C50
:1032A0000B4E054621460022304602F07EF80949C1
:1032B0000022304602F09CF8286862780368217882
:1032C0009D68A378AC46BDE870406047A019002017
:1032D000FC1A00209C1900207047FFF7EABC10B5CB
:1032E0007821044619F04DFF204610BD10B5044664
:1032F000FFF7E8FC014B2360204610BDB8FE010833
:10330000F02070474FF4A07070472920FEF754BAA0
:103310002820FEF751BA08B5FEF722FACA20FEF7B8
:103320004BFAC320FEF72CFA0820FEF729FA5020AA
:10333000FEF726FACF20FEF73FFA0020FEF720FA2C
:10334000C120FEF71DFA3020FEF71AFAED20FEF735
:1033500033FA6420FEF714FA0320FEF711FA122064
:10336000FEF70EFA8120FEF70BFAE820FEF724FAAA
:103370008520FEF705FA0020FEF702FA7820FEF716
:10338000FFF9CB20FEF718FA3920FEF7F9F92C20C7
:10339000FEF7F6F90020FEF7F3F93420FEF7F0F916
:1033A0000220FEF7EDF9F720FEF706FA2020FEF7DF
:1033B000E7F9EA20FEF700FA0020FEF7E1F9002025
:1033C000FEF7DEF9B120FEF7F7F90020FEF7D8F995
:1033D0001B20FEF7D5F9B620FEF7EEF90A20FEF71E
:1033E000CFF9A220FEF7CCF9C020FEF7E5F91020B6
:1033F000FEF7C6F9C120FEF7DFF91020FEF7C0F98D
:10340000C520FEF7D9F94520FEF7BAF91520FEF7D9
:10341000B7F9C720FEF7D0F99020FEF7B1F93620B2
:10342000FEF7CAF9C820FEF7ABF9F220FEF7C4F99F
:103430000020FEF7A5F9B020FEF7BEF9C220FEF786
:103440009FF9B620FEF7B8F90A20FEF799F9A720F0
:10345000FEF796F92720FEF793F90420FEF790F97E
:103460002A20FEF7A9F90020FEF78AF90020FEF7CE
:1034700087F90020FEF784F9EF20FEF781F92B2071
:10348000FEF79AF90020FEF77BF90020FEF778F9A5
:103490000120FEF775F93F20FEF772F9F620FEF7DE
:1034A0008BF90120FEF76CF90020FEF769F9062080
:1034B000FEF766F92C20FEF77FF9C820FEF7CAF95F
:1034C0002620FEF779F90120FEF75AF9E020FEF7F1
:1034D00073F90F20FEF754F92920FEF751F9242043
:1034E000FEF74EF90C20FEF74BF90E20FEF748F9D7
:1034F0000920FEF745F94E20FEF742F97820FEF745
:103500003FF93C20FEF73CF90920FEF739F913207A
:10351000FEF736F90520FEF733F91720FEF730F9EC
:103520001120FEF72DF90020FEF72AF9E120FEF721
:1035300043F90020FEF724F91620FEF721F91B209D
:10354000FEF71EF90420FEF71BF91120FEF718F90B
:103550000720FEF715F93120FEF712F93320FEF7A8
:103560000FF94220FEF70CF90520FEF709F90C20AF
:10357000FEF706F90A20FEF703F92820FEF700F906
:103580002F20FEF7FDF80F20FEF7FAF81120FEF7C6
:1035900013F9C820FEF75EF92920FEF70DF9BDE802
:1035A00008402C20FEF708B908B5FEF7D9F803212A
:1035B000D320FEF71DF980B208BD10B5C4B20222B7
:1035C00003212046FEF782F80A20FEF7C7F82046BE
:1035D00000220321FEF77AF8BDE810400220FEF732
:1035E000BDB838B50446E4B2FEF76EF800212046B7
:1035F000FEF784F8012105462046FEF77FF840EAF1
:10360000052080B238BD10B5C4B240212046FEF777
:1036100075F8030607D54C212046FEF76FF80038F1
:1036200018BF012010BD01224B212046FEF74EF8A5
:10363000204600224B21FEF749F80020F2E773B53F
:103640000423C4B20E461546D7210DEB03022046D3
:10365000FEF76EF8019B1BBA1A0DC3F30B233280E1
:1036600020462B8001224B21FEF730F800224B210F
:103670002046FEF72BF802B070BD000010B50A4BD3
:103680001A78904204460DD0597888420AD00AB17F
:1036900041B901229C54FEF717F82046BDE81040BE
:1036A000FFF78BBF10BD00BFC81C002010B5C4B20F
:1036B00009212046FEF722F840F00100C2B209219C
:1036C0002046BDE81040FEF701B810B5C4B209218C
:1036D0002046FEF713F8092100F0FE022046BDE85F
:1036E0001040FDF7F3BF38B5C4B20D4620460A219D
:1036F000FEF704F82843C2B20A212046BDE838404C
:10370000FDF7E4BF07B50190FDF7DFFF01981F212A
:10371000FFF7E9FF019803B05DF804EBFFF7C6BFC0
:1037200038B5C4B20D4620460A21FDF7E7FF20EA6E
:103730000500C2B20A212046BDE83840FDF7C6BFE9
:1037400010B50446FFF7C1FF20461F21BDE8104019
:10375000FFF7E6BF10B5C0B20C460B21FDF7CEFF58
:10376000204010BD1F21FFF7F5BF0A46C0B20B2154
:10377000FDF7ACBF1F21FFF7F8BF38B5C4B20D4647
:1037800020461721FDF7BAFF20EA0500C2B2172133
:103790002046BDE83840FDF799BF70B5C4B2064673
:1037A00004212046FDF7AAFF042100F0FB02054694
:1037B0002046FDF78BFF3046F021FFF7DEFF05F0D6
:1037C000F80220460421FDF781FF492220212046EE
:1037D000FDF77CFF0220FDF7C1FF204601222121D9
:1037E000FDF774FF20469A224121FDF76FFF204626
:1037F00001224A21FDF76AFF204601224B21FDF7F5
:1038000065FF204600224B21FDF760FF2046012284
:103810005621FDF75BFF204601225821FDF756FF98
:10382000204601224021FDF751FF2046FF220B21B7
:10383000FDF74CFFBDE870400220FDF78FBF000090
:10384000054BD3F8882042F47002C3F888204FF06B
:1038500000629A60704700BF00ED00E008B50B4BB6
:103860001A6842F400721A601A6842F480621A60A0
:103870001A6842F480721A60032000F02FF80020CA
:10388000FEF74CFAFDF7F4FF002008BD003C0240B3
:10389000034A044B11681B780B441360704700BF48
:1038A000CC1C002078000020014B1868704700BF36
:1038B000CC1C002038B50446FFF7F6FF631C1CBF84
:1038C000054B1B78054618BFE418FFF7EDFF431BB7
:1038D000A342FAD338BD00BF780000200749CA6868
:1038E00022F4E0620302120403F4E063120C1343B7
:1038F00043F0BF6343F40033CB60704700ED00E05A
:10390000164B30B5DC68C4F30224C4F10705231D4F
:10391000042D28BF0425062B4FF0FF338CBF033C3A
:10392000002403FA05F521EA0501A34022EA030277
:10393000A140002841EA0203ACBF00F16040084A00
:103940004FEA0313B8BF00F00F00DBB2AABF00F5C7
:103950006140135480F8003330BD00BF00ED00E03B
:1039600014ED00E0002808DB4209012300F01F00ED
:1039700003FA00F0014B43F82200704700E100E039
:1039800010B5044650B1437903F0FF0213B9027138
:10399000FDF78EFF01236371002010BD0120FCE7BD
:1039A00010B5044630B390F8393003F0FF021BB96C
:1039B00080F83820FDF794FF22686168022384F8BC
:1039C0003930136823F440330B431360536BA16801
:1039D00023F007030B435363136CE16823F47F5315
:1039E00023F03F030B43136400200123E06384F8BA
:1039F000393010BD0120FCE770477047036870B58F
:103A00005E681D68F207044614D5E90512D51A68E8
:103A100022F480721A60C26B42F00102C26301227A
:103A20009A60042380F83930002380F838304369E5
:103A300003B19847B20616D5AB0414D523681A68AB
:103A400022F400521A6020229A60E36B43F00203D2
:103A5000E363042384F83930002384F83830636941
:103A60000BB120469847300716D5290514D5236891
:103A70001A6822F400621A6008229A60E36B43F02D
:103A80000403E363042384F83930002384F83830D6
:103A900063690BB12046984772070BD56B0509D5B2
:103AA00023681A6822F480621A6004229A60204611
:103AB000FFF7A2FFB00714D5A90512D523681A682D
:103AC00022F400721A6002229A60E36BE36301231E
:103AD00084F83930002384F8383023690BB120464C
:103AE0009847F20613D5EB0411D523681A6822F41F
:103AF00080521A6010229A60E36BE363012384F81A
:103B00003930002384F838302046FFF776FF70BD47
:103B1000F0B590F83830012B4FF002032BD0012282
:103B200080F8393080F8382000EB0113D3E90742E0
:103B30005D6A184F44EA0242093C012C9CBF05F023
:103B40007F431A434FEA0116036888BF42EA0562C1
:103B500099B9596A39400A435A62012C82699A61BB
:103B600003D8426A22F07F429A62012380F83930FA
:103B7000002380F838301846F0BDD96939400A432F
:103B8000DA618219012C92691A619CBF25F07F4588
:103B90001D62EAE7F0FFFC002DE9F74FDFF8C09166
:103BA0006D4A00230D6801249C4004EA050CAC43D7
:103BB00040F0B9804D6805F003044FEA430803263E
:103BC000671E06FA08F6012F6FEA060634D88768E2
:103BD00007EA060ECF6807FA08F747EA0E0787607C
:103BE000476827EA0C0EC5F300179F4047EA0E0707
:103BF0004760C76807EA060E8F6807FA08F747EAC2
:103C00000E07022CC76019D14FEAD30A00EB8A0ACB
:103C100003F0070BDAF820704FEA8B0B4FF00F0E12
:103C20000EFA0BFE27EA0E0E0F6907FA0BF747EAAA
:103C30000E07CAF8207001E0032CDAD1076804FAF5
:103C400008F43E40264315F4403F06606BD04FF029
:103C5000000ACDF804A0D9F84460404C46F48046F0
:103C6000C9F84460D9F8446006F480460196019E84
:103C700023F0030606F1804606F59C3603F0030E9A
:103C8000D6F808804FEA8E0E0F2707FA0EF7A042EB
:103C900028EA07074ED004F58064A0424CD004F512
:103CA0008064A0424AD004F58064A04248D004F564
:103CB0008064A04246D004F58064A04244D004F55C
:103CC0008064A04242D004F58064A04240D004F554
:103CD0008064A0423ED004F58064A0420CBF092459
:103CE0000A2404FA0EF43C43B46094686FEA0C06AC
:103CF000EF0254BF34404CEA04049460D468AF022D
:103D000054BF34404CEA0404D4605468AF0354BF39
:103D100034404CEA040454601468ED0354BF34404A
:103D20004CEA040414600133102B7FF43BAF03B062
:103D3000BDE8F08F5446D4E70124D2E70224D0E74F
:103D40000324CEE70424CCE70524CAE70624C8E709
:103D50000724C6E70824C4E7003C014000000240F5
:103D6000003802400AB1816170470904FBE74369EA
:103D700001EA030221EA030141EA0241816170473D
:103D800001684B6913F480634FF0000210D06FF4A8
:103D900080634B612023026380F83D3080F83E2031
:103DA000036C80F83C2043F0040303640120704757
:103DB000184670472DE9F84606460F4691461D46BF
:103DC0004FEA114A3368BAF1010F0CBF5C699C6974
:103DD00027EA0404A4B2B4FA84F46409A14501D02A
:103DE000002017E06A1CEED0FFF75EFD089BC01AAA
:103DF000A84201D8002DE5D100232022336386F8A4
:103E00003D2086F83E30326C86F83C3042F020028D
:103E100032640120BDE8F8862DE9F04104460F46E2
:103E2000164698462568686927EA000080B2B8B14E
:103E30006B695A0516D52B6843F400732B606FF439
:103E400080636B6120220023236384F83D2084F883
:103E50003E30226C42F00402226484F83C3001209F
:103E6000BDE8F081731CDED0FFF71EFDA0EB08005B
:103E7000B04201D8002ED5D100232022236384F83C
:103E80003D2084F83E30226C42F02002E4E770B519
:103E900004460D46164621684B6913F0400301D0D5
:103EA000002010E04A69D2060ED56FF010024A6178
:103EB0002022236384F83D2084F83E30226C226463
:103EC00084F83C30012070BDFFF7EEFC801BA84257
:103ED00001D8002DDFD100232022236384F83D2068
:103EE00084F83E30226C42F02002E8E770B50446C8
:103EF0000D46164623685B695B0701D5002070BD3F
:103F00002046FFF73DFFA8B96A1CF3D0FFF7CCFCB1
:103F1000801BA84201D8002DECD10023202223636E
:103F200084F83D2084F83E30226C84F83C3042F026
:103F3000200222640120E2E770B504460D461646D1
:103F400023685B691B0601D5002070BD2046FFF782
:103F500017FFA8B96A1CF3D0FFF7A6FC801BA84284
:103F600001D8002DECD100232022236384F83D20CA
:103F700084F83E30226C84F83C3042F02002226407
:103F80000120E2E72DE9F0431546026885B0DDE93E
:103F90000C789946136843F4807313600E463B46D1
:103FA000CDF8008000224FF001110446FFF702FF18
:103FB000236838B11B68DB0502D54FF40073236416
:103FC00003200AE006F0FE061E61194943463A4600
:103FD0002046FFF721FF18B1012005B0BDE8F083AE
:103FE000236803905A6903929B69039342463946BA
:103FF0002046039BFFF7A0FF40B1236C042B01BFB9
:104000002268136843F400731360E5E7B9F1010F08
:10401000236802D1EDB21D61DFE72A0A1A61394631
:1040200042462046FFF788FF0028E6D12368F1E7E3
:10403000020001002DE9FF479A46036815461A68F9
:1040400042F480621A601A68DDE90C7842F48072EA
:104050001A600E463B46CDF8008000224FF0011159
:104060000446FFF7A7FE236848B11B68DB0502D5AD
:104070004FF400732364032004B0BDE8F0875FFAB7
:1040800086F906F0FE061E612A4943463A46204656
:10409000FFF7C2FE08B10120EEE7236803905A69DA
:1040A00003929B690393424639462046039BFFF7E0
:1040B00043FF40B1236C042B01BF2268136843F413
:1040C00000731360E7E7BAF1010F23681AD1EDB26C
:1040D0001D61424639462046FFF72EFF0028E9D1F0
:1040E0002268136843F4807313604FF00111024695
:1040F000CDF800803B462046FFF75CFE226860B1A9
:104100001368B3E72A0A1A61394642462046FFF788
:1041100013FF0028CED12368D9E749F001031361CA
:10412000044943463A462046FFF776FE003818BF5A
:104130000120A1E70200010070B5044608B9012082
:1041400070BD90F83D3003F0FF021BB980F83C20B1
:10415000FDF7E8FB242384F83D3023681A6822F039
:1041600001021A601A6842F400421A601A6822F4C6
:1041700000421A6000F074FE3F4B65689D4294BF98
:104180003E4B3F4B98428CBF00230123002BD6D1DE
:104190002268394E53683B49B0FBF1F123F03F03ED
:1041A0000B43B542536088BF4FF49676136A88BFBD
:1041B000714323F03F0384BF4FF47A76B1FBF6F1ED
:1041C000013119431162D169431E2B4821F44F413B
:1041D000854221F0FF0132D86D0040F6FC70B3FB40
:1041E000F5F30133034242D0C3F30B030B43D36116
:1041F000D4E907301168034321F0C0010B43136079
:104200009168D4E9030321F40341034321F0FF0142
:104210000B439360D4E90530D168034321F0FF01DB
:104220000B43D360136843F0010313600020202385
:10423000206484F83D30206384F83E0080E7A06865
:1042400050B905EB4505B3FBF5F30133C3F30B039D
:104250007BB143F40043C9E719204543B3FBF5F3B1
:104260000133C3F30B0323B143F44043BEE70423FC
:10427000BCE70123BAE700BFA08601007F841E00CF
:10428000FF083D0040420F002DE9F74304469946E0
:104290000C9E0F469046FFF707FB94F83D30202B0D
:1042A000054603D0022003B0BDE8F08300903C49EE
:1042B000192301222046FFF77DFD0028F2D194F852
:1042C0003C30012BEED02068012384F83C30036899
:1042D000D9075EBF036843F001030360036823F45A
:1042E00000630360212384F83D30402384F83E308E
:1042F000002323640A9B6362BDF82C306385638DC1
:104300002385284BE362CDE900654B46424639469A
:104310002046FFF737FE00282AD00120C3E7FFF729
:104320000BFE40B1236C042B01BF2268136843F4D9
:1043300000731360F1E7636A27681A4612F8011BDD
:1043400039616262628D218D013A92B262857A6929
:10435000481E80B2520720850AD548B15A783A6182
:1043600002336362638D013B02399BB22185638511
:10437000238D2A4631462046002BD0D1FFF7B6FDCB
:104380000028CFD12268136843F400731360202300
:1043900084F83D3084F83C0084F83E0083E700BF99
:1043A000020010000000FFFF2DE9F043044687B033
:1043B0009946109F0D469046FFF776FA94F83D30E7
:1043C000202B064604D00225284607B0BDE8F0831E
:1043D00000907649192301222046FFF7EBFC0028C4
:1043E000F1D194F83C30012BEDD02068012384F802
:1043F0003C300368DB075EBF036843F001030360E2
:10440000036823F400630360222384F83D304023D3
:1044100084F83E30002323640E9B6362BDF83C3079
:104420006385638D2385624BE3622946CDE900767F
:104430004B4642462046FFF7FDFD054608B10125E3
:10444000C2E7228D2368B2B902905A6902929A6932
:104450000292029A1A6842F400721A60DFF85481DC
:10446000238D002B2CD1202284F83D2084F83C3071
:1044700084F83E30A8E7012A0AD11A6822F4806243
:104480001A6003905A6903929A690392039AE1E7CA
:10449000022A0ED11A6822F480621A601A6842F465
:1044A00000621A6004905A6904929B690493049B09
:1044B000D4E705905A6905929B690593059BCDE762
:1044C000032B56D8012B15D1324639462046FFF72B
:1044D000DEFC0028B3D123681A69636A1A70636A24
:1044E00001336362238D013B2385638D013B9BB2C6
:1044F0006385B5E7022B00963B464FF0000241462C
:10450000204619D1FFF756FC002898D123681A6875
:1045100042F400721A601A69636A1A70626A531C64
:104520006362238D013B2385638D013B9BB26385D1
:1045300023681B695370D2E7FFF73CFC00287FF427
:104540007EAF23681A6822F480621A601A69636A6F
:104550001A70636A009601336362238D013B2385E1
:10456000638D013B9BB2638502463B464146204634
:10457000C8E7324639462046FFF789FC00287FF419
:104580005EAF23681A69636A1A70626A531C6362B9
:10459000238D013B2385638D013B9BB2638523689B
:1045A000596949077FF55CAFC3E700BF02001000FF
:1045B0000000FFFF0400010010B590F83D30202BF3
:1045C000DCB216D1242380F83D3003681A6822F04B
:1045D00001021A605A6A22F010025A625A6A1143A2
:1045E00059621A6842F001021A6080F83D400020CA
:1045F00010BD0220FCE730B590F83D30202BDCB236
:1046000016D10268242380F83D30136823F001039B
:104610001360556A4FF6F0732B400B439BB2536205
:10462000136843F00103136080F83D40002030BD63
:104630000220FCE70068D1F800C0D2018432831860
:104640002DE9F043C6685D684C68D1F8189005F410
:1046500070455D60C5680CF10107C5F30B45C6F3F5
:104660000B463D44264445EA06455D60C568CE6874
:10467000C5F30A052E449D6805F470459D60C76822
:104680008D68C7F30A0701353D4445EA06459D603C
:104690001D690E6925F007051D614FF0000E1E61B2
:1046A0009D6991F8327091F83180C3F818E091F863
:1046B000305045EA096545EA082545EA07459D6108
:1046C0005D6925F0FF055D614D695D61DD6925F47A
:1046D000E06525F00705DD61D1E907573D43DD6160
:1046E0009D6A4D6AC3F828E09D621EB3012E23D057
:1046F000B51E022D22D9072E0CBF02250125DE6A28
:1047000006F0E026DE62A4EB0C048E6AC96A6C43F4
:104710006E43033444EA0644DC621C6B24F4FF64F9
:1047200024F007041C631963835843F0010383508A
:10473000BDE8F0830425E2E70325E0E70225DEE794
:1047400038B50446002863D090F8A13003F0FF028A
:104750001BB980F8A020FDF741F9022384F8A130AD
:1047600023689A6922F070429A61D4E901200243D9
:10477000E06899690243206902430A439A619A6892
:10478000244960690A409A609A6842EA0042A06936
:1047900002439A60DA68E0690A40DA60DA6842EA5D
:1047A0000042206A0243DA601A69606A0A401A61AC
:1047B0001A6942EA0042A06A02431A615A6911402A
:1047C00059615A69E16A42EA0142216B0A435A611E
:1047D000D96A94F8360094F8355001F07F41D962D7
:1047E000D96A94F834200A4342EA052242EA004298
:1047F000DA625A6B42F006025A639A6942F0010289
:104800009A6100200123C4F8A40084F8A13038BDC7
:104810000120FCE700F800F070477047036870B5AE
:104820009E6B5D6B7207044614D5690712D55A6BEF
:1048300022F004025A630422DA63D0F8A43043F071
:104840000103C0F8A430002380F8A12080F8A03034
:10485000FFF7E2FFB20716D5AB0714D523685A6BF2
:1048600022F002025A630222DA63D4F8A43013431E
:10487000C4F8A430042384F8A130002384F8A030C5
:104880002046FFF7C9FFF00710D5E9070ED52368CA
:104890005A6B22F001025A630122DA63002384F882
:1048A000A12084F8A0302046FCF778FC320711D50F
:1048B0002B070FD523685A6B22F008025A6308228F
:1048C000DA63012384F8A130002384F8A030204665
:1048D000FFF7A3FF70BD2DE9F04190F8A030012B48
:1048E00006460F4694464FF002001FD04FF00108D5
:1048F00086F8A08086F8A10034240D4604FB0264EB
:104900000FCD38340FC40FCD0FC40FCD0FC42B689B
:104910002360304662463946FFF78CFE336800203C
:10492000C3F8248086F8A18086F8A000BDE8F08155
:1049300090F8A030012B4FF0020312D080F8A13084
:1049400003685A6B22F001025A63074A11645A6BDA
:1049500042F001025A63012380F8A130002380F85D
:10496000A0301846704700BF006801402DE9F341B0
:10497000044640B30368DD0710D4236898075ED46B
:1049800023681A0700F1A08023685B0700F1C0804C
:10499000A069002840F0288100202BE08F4B9A6806
:1049A00002F00C02042A07D09A6802F00C02082ACE
:1049B0000BD15A68510208D5884B1B689A03DCD585
:1049C0006368002BD9D1012014E06268B2F5803F02
:1049D00013D11A6842F480321A60FEF765FF7F4EE9
:1049E000054633689B03C8D4FEF75EFF401B64286E
:1049F000F7D9032002B0BDE8F081784DB2F5A02FC1
:104A00002B6807D143F480232B602B6843F4803359
:104A10002B60E2E723F480332B602B6823F48023A0
:104A20002B60002AD9D1FEF73FFF06462B689F0373
:104A3000A3D5FEF739FF801B6428F7D9D9E7674B68
:104A40009A6812F00C0F07D09A6802F00C02082A3C
:104A500011D15B685E020ED4604A13689D0702D5CF
:104A6000E368012BAFD11368216923F0F80343EA0F
:104A7000C103136084E7E268594BB2B101221A60A6
:104A8000FEF712FF554D06462B68980707D52B6891
:104A9000226923F0F80343EAC2032B6070E7FEF7B4
:104AA00003FF801B0228EFD9A3E71A60FEF7FCFE84
:104AB0004A4E0546336899077FF562AFFEF7F4FE6C
:104AC000401B0228F6D994E76269454B82B1012266
:104AD000C3F8802EFEF7E8FE404E0546736F9F0731
:104AE0003FF552AFFEF7E0FE401B0228F6D980E703
:104AF000C3F8802EFEF7D8FE384E0546736F980730
:104B00007FF542AFFEF7D0FE401B0228F6D970E7D2
:104B1000324B1A6C12F0805228D101921A6C42F07A
:104B200080521A641B6C03F080530193019B012790
:104B30002C4D2B68D9051BD5A368284D012B27D1F7
:104B40002B6F43F001032B67FEF7AEFE234E0546A5
:104B500041F28838336F9B0739D5002F3FF418AFE7
:104B60001E4A136C23F08053136411E70027DFE71C
:104B70002B6843F480732B60FEF796FE06462B6885
:104B8000DA05D9D4FEF790FE801B0228F7D930E76A
:104B9000052B04D12B6F43F004032B67D0E72A6F5A
:104BA00022F001022A672A6F22F004022A67002BF2
:104BB000CAD1FEF779FE41F2883806462B6F980776
:104BC000CBD5FEF771FE801B4045F7D911E7FEF704
:104BD0006BFE401B4045BDD90BE700BF00380240CB
:104BE0000000474200700040364DAB6803F00C03F4
:104BF000082B3DD0344B002202281A662BD1FEF739
:104C000053FE06462B6899011FD4D4E9073213439B
:104C1000626A43EA8213E26A43EA0263A26A5208C2
:104C2000013A43EA02436B60274B264D01221A6684
:104C3000FEF73AFE04462B689A013FF5ADAEFEF74B
:104C400033FE001B0228F6D9D3E6FEF72DFE801BAB
:104C50000228D7D9CDE6FEF727FE04462B689B0134
:104C60007FF59AAEFEF720FE001B0228F6D9C0E6BB
:104C700001283FF4BFAE6B68E26903F48001914202
:104C80007FF4A1AE216A03F03F028A427FF49BAE1B
:104C9000616A47F6C0721A40B2EB811F7FF493AE8F
:104CA000A26A520803F44031013AB1EB024F7FF49B
:104CB0008AAEE26A03F07063B3EB026F3FF46CAE4E
:104CC00081E600BF0038024000004742134908B5A2
:104CD0008B6803F00C03042B1CD0082B1CD14A68F2
:104CE0004B68496813F4800314BF0D480D48C1F3A5
:104CF000881118BF002302F03F02A1FB0001FBF75F
:104D0000C7FA064B5B68C3F3014301335B00B0FB9A
:104D1000F3F008BD0248FCE70248FAE70038024019
:104D200000127A000024F4002DE9F0410D460446FB
:104D300010B90120BDE8F081444B1A6802F00F025F
:104D40008A4228D3226897072DD4D00741D43F4BFD
:104D50001A6802F00F02AA4266D8226851076CD482
:104D6000130707D53A4A2169936823F4604343EA5D
:104D7000C1039360FFF7AAFF354B364A9B68C3F324
:104D80000313D35CD840344B1860344B1868FCF7DD
:104D9000C5FF0020CEE7CAB21A701B6803F00F03EC
:104DA0008B42C6D1CEE72A4B12F0040F1EBF996882
:104DB00041F4E0519960160742BF996841F460419F
:104DC00099602349A0688B6823F0F00303438B604C
:104DD000BBE762681E4B012A1CD11B6813F4003F1D
:104DE000A7D01B4EB36823F003031343B360FEF751
:104DF0005BFD41F288380746B368626803F00C0334
:104E0000B3EB820FA3D0FEF74FFDC01B4045F3D993
:104E100003208FE7911E01291B6802D813F0007F41
:104E2000DEE713F0020FDBE7EAB21A701B6803F04B
:104E30000F03AB427FF47DAF8FE70549E0688B68D5
:104E400023F4E05303438B608AE700BF003C024039
:104E50000038024044FF0108740000207C0000205C
:104E6000044B054A9B68C3F38223D35C034A106852
:104E7000D84070470038024054FF010874000020F9
:104E80000F2303600B4B9A6802F0030242609A689A
:104E900002F0F00282609A6802F4E052C2609B68FD
:104EA000DB0803F4E0530361034B1B6803F00F03BB
:104EB0000B60704700380240003C0240036813F06A
:104EC000430FF7B5044640F08C80236813F00C0FB5
:104ED00045D08B4B8B4D00221A67FEF7E5FC06464A
:104EE0002B689F0000F1CF8021684E0715D5D4E9CB
:104EF0000403D5F888201B0602F0E04243EA801341
:104F00001343C5F88830D5F88C30226A23F4F8535F
:104F1000013A43EA0223C5F88C300D0714D5794ACB
:104F2000A369D2F8881020691B0701F0706143EA79
:104F300080130B43C2F88830D2F88C30616A23F4B6
:104F400040330B43C2F88C306D4B6E4E01221A6712
:104F5000FEF7AAFC05463368980040F19B80236861
:104F60009B0633D500230193664B674D1A6C42F0C4
:104F700080521A641B6C03F080530193019B2B68D1
:104F800043F480732B60FEF78FFC06462B68D9052F
:104F900040F187805B4D2B6F13F4407340F08880A5
:104FA000A36A03F44072B2F5407F564A40F0A480F1
:104FB000916823F0704021F4F81120F4407001430F
:104FC0009160116FC3F30B030B431367206810F05C
:104FD00010001FBF4D4B94F82C20C3F8E021002097
:104FE0004FE0474B474E00229A66FEF75DFC0546B0
:104FF00033681F013FD42168CD0741BFD4E90123A5
:105000001B0743EA8213C6F88430880715D53D4A4A
:10501000E368D2F8840065681B0600F0E04043EACC
:1050200085130343C2F88430D2F88C00E36920F082
:105030001F00013B0343C2F88C3049060AD5E368E0
:1050400062681B0643EA8213A26843EA02732D4A90
:10505000C2F884302A4B2B4E01229A66FEF724FCBC
:10506000054633681A013FF530AFFEF71DFC401BC3
:105070000228F6D904E0FEF717FC401B0228B7D936
:10508000032003B0F0BDFEF70FFC801B02287FF663
:1050900027AFF5E7FEF708FC401B02287FF65BAF61
:1050A000EEE7FEF701FC801B02287FF66FAFE7E713
:1050B000A26A02F4407293423FF472AF2B6F104A1F
:1050C0000121C2F8401E23F440730021C2F8401EA3
:1050D0002B672B6FDA077FF563AFFEF7E5FB41F235
:1050E000883706462B6F9B073FF55AAFFEF7DCFB70
:1050F000801BB842F6D9C3E7916821F4F8115FE745
:105100000000474200380240007000400010474253
:10511000026838B5D36823F0A003D3600446FEF7D5
:10512000C3FB05462368DB689B0601D5002038BD1C
:10513000FEF7BAFB401BB0F57A7FF3D90320F6E700
:10514000F8B50368DC6814F04004054617D1DA6846
:1051500042F08002DA60FEF7A7FB042706462B68C0
:10516000DB685B0600D40CB12046F8BDFEF79CFB63
:10517000801BB0F57A7F84BF6F770124EFE70024AE
:10518000F2E70368DA6822F0800210B5DA609B6803
:105190009B06044601D5002010BDFFF7B9FF00288B
:1051A000F9D0042363770120F6E710B50446002800
:1051B0003AD0437F03F0FF0213B90277FCF7EAFC11
:1051C000022363772368CA225A6253225A62204616
:1051D000FFF7B6FF20BB236820699A6822F4E0023B
:1051E00022F040029A606268996802436069024353
:1051F0000A439A60E2681A611A69A16842EA0142A8
:105200001A612046FFF7BDFF50B92368A1691A6CE7
:1052100022F480221A641A6C0A431A640123637709
:105220002368FF225A6210BD0120FCE700230928F1
:10523000DAB203F1010303D840EA0210C0B27047AA
:105240000A38C0B2F3E72DE9F843037F012B064685
:105250000F464FF0020042D0012333777077316858
:1052600038787D7897F80280002A3AD18A6812F05F
:10527000400208BFFA70FFF7D9FF81462846FFF7C2
:10528000D5FF04464046FFF7D1FFFA7840EA825541
:1052900045EA094242EA0424CA234B6253234B6283
:1052A0003046FFF74DFFA8B9326804F07F3424F090
:1052B000FE441460936823F480239360D7E903309D
:1052C000916803430B4393603046FFF75AFF08B9D8
:1052D000012373773368FF225A6200233377BDE8D6
:1052E000F8838A6812F0400208BFFA702D02FC7839
:1052F00045EA004545EA080343EA8454CCE72DE932
:10530000F041037F012B06464FF002033BD0012002
:10531000307773770D78C8784C7891F802806D03F8
:105320009ABBE30603D524F010040A344C70FFF74F
:105330007DFF07464878FFF779FF04464046FFF7B0
:1053400075FF40EA050242EA074545EA042433684E
:10535000CA225A6253225A623046FFF7F1FE58B908
:10536000326824F07F4424F0C00454603046FFF7D4
:1053700008FF08B9012373773368FF225A620023BC
:105380003377BDE8F0811846FBE745EA004545EA7A
:10539000080343EA0424DAE7030903EB830300F07C
:1053A0000F0000EB4300C0B2704738B50368986A3D
:1053B000486018691B68C0F30E00C3F3062503F0AC
:1053C0007F048860C3F30540C3F3805308704D70B9
:1053D0008C70CB7052B9FFF7DFFF08702846FFF7DB
:1053E000DBFF48702046FFF7D7FF8870002038BDEC
:1053F00038B503685B68C3F30740C3F3042503F0C3
:105400003F04C3F34233C8704D708C700B7052B9B7
:10541000FFF7C2FFC8702846FFF7BEFF487020465E
:10542000FFF7BAFF8870002038BD38B50D46044636
:10543000C8B190F82C3003F0FF021BB980F82D2082
:10544000FCF700FC022384F82C30211D206800F0BA
:1054500005FD62682068294600F03BFD012384F8C1
:105460002C30002038BD0120FCE770B590F82C30BE
:10547000022B05460E46D8B212D000F0FB04012CD8
:105480000FD1022385F82C30286800F058FD3368CE
:10549000022B06BF052385F82C3085F82C40002010
:1054A00070BD0120FCE738B590F82C30022B044683
:1054B000D8B20DD094F82C30012BDDB209D10223E3
:1054C000206884F82C3000F060FD84F82C50002017
:1054D00038BD0120FCE700002DE9F3411D461746C9
:1054E00088460646FEF7E0F93D442C1AFEF7DCF943
:1054F000224B1B68C3F3CB330546634332680193E9
:10550000936838EA030301D000202DE07B1CF7D01C
:10551000FEF7CAF9401BA04229D333685A6822F02B
:10552000E0025A607268B2F5827F0AD1B268B2F5C1
:10553000004F02D0B2F5806F03D11A6822F040020A
:105540001A60B26AB2F5005F07D11A6822F40052FD
:105550001A601A6842F400521A60012386F851302A
:10556000002386F85030032002B0BDE8F081019B93
:10557000002B019B08BF0024013BBFE77400002003
:1055800038B513464268B2F5827F04461FD182685F
:10559000B2F5004F02D0B2F5806F07D125682868B8
:1055A000B2F5806F20F04000286007D00A468021C5
:1055B0002046FFF791FF20B9002038BD0A4601219F
:1055C000F6E7636D43F0200363650320F5E70A46C1
:1055D0000121EEE737B51346124A1568124AB5FBAA
:1055E000F2F54FF47A72554342680195B2F5827F25
:1055F00004460BD10A468021FFF76EFF78B1636D38
:1056000043F020036365032003B030BD019B33B139
:10561000019B013B019323689B681B06F6D4002085
:10562000F2E700BF7400002000366E0110B504469A
:10563000002855D0436A002B4ED14268B2F5827FD4
:1056400000D0C3610023A36294F8513003F0FF023D
:1056500023B984F850202046FCF7BEFA2168A068E0
:10566000A269022384F851300B6823F040030B60D9
:10567000636800F4044003F482730343E06800F4B9
:1056800000600343206900F002000343606900F0FA
:105690000100034302F400700343E06900F03800A6
:1056A0000343206A00F080000343A06A00F4005026
:1056B00003430B60636A120C03F0100302F0040250
:1056C0001A434A60CB6923F40063CB6100200123B5
:1056D000606584F8513010BD0023C0E90433B1E7A0
:1056E0000120F8E72DE9F3411E4690F85030012BD8
:1056F00004460D46174600F0A180012380F8503083
:10570000FEF7D2F894F85130012B8046D8B240F021
:105710009380002D5ED0002F5CD0A2682563032308
:1057200084F85130B2F5004F4FF000036365C4E9CF
:105730001033E786A363A387E387A786236807D18F
:105740001A6822F040021A601A6842F480421A6015
:105750001A68E16852065EBF1A6842F040021A6099
:10576000B1F5006F626841D10AB1012F07D135F858
:10577000022BDA602563E38E013B9BB2E386E38E66
:105780009BB2A3B9424631462046FFF723FF0028CB
:105790004FD1A36833B901932368DA6801929B68FB
:1057A0000193019B606D003818BF012012E0226850
:1057B0009368980705D5236B33F8021BD1602363E8
:1057C000D9E7FEF771F8A0EB0800B0420BD3711CCB
:1057D000D5D00320012384F85130002384F85030C1
:1057E00002B0BDE8F081002EC9D1F2E70AB1012F65
:1057F00008D12A781A73236B01332363E38E013BAC
:105800009BB2E386E38E9BB2002BBBD023689A68E1
:10581000920702D5226B1278ECE7FEF745F8A0EB71
:105820000800B04202D3731CECD0D2E7002EE9D1BD
:10583000CFE720236365ACE70220CBE70220CFE768
:105840002DE9F7431E4690F850300A9F012B04467D
:105850000D46914600F0E680012380F85030FEF7B7
:1058600023F894F851306268012B8046D9B20AD0EF
:10587000B2F5827F40F0D480A368002B40F0D08046
:10588000042940F0CD80002D40D0B9F1000F3DD06B
:10589000002E3BD094F85130C4F83890042B1CBF34
:1058A000052384F8513000236365C4E9103323686D
:1058B000E687E6861968A687490658BF19682563F2
:1058C00058BF41F04001A68658BF1960E168B1F5A4
:1058D000006F52D10AB1012E07D135F8022BDA60E0
:1058E000E38E2563013B9BB2E3860125E38E9BB2E9
:1058F00073B9E38F9BB25BB9424639462046FFF746
:1059000069FE002800F081802023636501202BE0E0
:1059100021688B689E070DD5E38E9BB253B14DB1C4
:10592000236B33F8022BCA602363E38E013B9BB2E7
:10593000E38600258A6812F001020CD0E38F9BB247
:105940004BB1A36BC96823F8021BA363E38F013B30
:105950009BB2E3871546FDF7A7FFA0EB0800B8420E
:10596000C4D3781CC2D00320012384F85130002313
:1059700084F8503003B0BDE8F0830AB1012E08D19D
:105980002A781A73236B01332363E38E013B9BB2A6
:10599000E38601252DE02268936899070ED5E38EF2
:1059A0009BB25BB155B1236B1B781373236B01332F
:1059B0002363E38E013B9BB2E38600252268916856
:1059C00011F001010DD0E38F9BB253B1A36BD268EC
:1059D0001A70A36B0133A363E38F013B9BB2E38790
:1059E0000D46FDF761FFA0EB0800B8420AD37B1C0F
:1059F000B9D1E38E9BB2002BCDD1E38F9BB2002BAC
:105A0000C9D179E7002FF4D1ADE7A368002BABD162
:105A100023680190DA6801929B680193019BA3E7D8
:105A20000220A1E70220A5E72DE9F7431D464368C0
:105A3000B3F5827F0446894617460CD1836853B973
:105A4000042380F85130134600950A46FFF7F8FE0C
:105A500003B0BDE8F08394F85030012B00F086804D
:105A6000012384F85030FDF71FFF94F85130012BCB
:105A70008046D8B278D1B9F1000F5CD0002F5AD04F
:105A8000A268C4F8389000260423B2F5004F84F8C9
:105A90005130C4E9106666652368E787A7872663E7
:105AA000A686E68607D11A6822F040021A601A68B4
:105AB00022F480421A601A6856065EBF1A6842F0E5
:105AC00040021A60E368F3B1E38F9BB2FBB1236835
:105AD0009A68D20739D5DA68A36B23F8022BA3633F
